:020000040000FA
:1000000010480020692900001BEF0000552900005E
:1000100055290000552900005529000055290000E8
:10002000000000000000000000000000212B000084
:100030005529000000000000B92A000055290000E1
:10004000012D0000012D0000012D0000012D0000F8
:10005000012D0000012D0000012D0000012D0000E8
:10006000012D0000012D0000012D0000012D0000D8
:10007000012D0000012D0000012D0000012D0000C8
:10008000012D0000012D0000012D0000012D0000B8
:10009000012D0000012D0000012D0000012D0000A8
:1000A000012D0000012D0000012D0000012D000098
:1000B000012D0000012D0000012D0000012D000088
:1000C000012D0000012D0000012D0000012D000078
:1000D000012D0000012D0000012D0000012D000068
:1000E000012D0000012D0000012D0000012D000058
:1000F000012D0000012D0000012D0000012D000048
:10010000012D0000012D0000012D0000012D000037
:10011000012D0000012D0000012D0000012D000027
:10012000012D0000012D0000012D0000012D000017
:10013000012D0000012D0000012D0000012D000007
:10014000012D0000012D0000012D0000012D0000F7
:10015000012D000010F8012B11F8013B012A28BFE6
:100160009A42F7D0D01A7047034611F8012B03F8D2
:10017000012B002AF9D17047034613F8012B002AFE
:10018000FBD1181A013870470A460249104603F09D
:10019000D9BA00BFF501000070B5064686B030B18F
:1001A00001460F4806B0BDE870400DF042B90D4D54
:1001B0000D4801AC0DF03DF90FCD0FC42B68314651
:1001C00001A8236005F046FB014620B107480DF069
:1001D00030F906B070BD06480DF02BF9F9E700BF05
:1001E0008430010060280100A4300100BB30010010
:1001F000DE3001002DE9F04303780C46083B012B6B
:1002000085B003D9012005B0BDE8F0830023427812
:1002100041680B2A28BF0B2201A8CDE901330393C3
:1002200012F01CF80B22244901A812F03CF80546F4
:100230000028E7D1214801A90DF0FBF8A388B3B14C
:10024000204610F069F90646204610F065F9A388AB
:1002500006F1FF38434513DA19480DF0EAF8194F53
:10026000A3889D4205DB314617480DF0E2F80020D7
:10027000C9E723683846595D0DF0DBF80135EFE733
:100280002768013307EB08029B1BFF282260A3802D
:10029000D4D10E480DF0CDF80026DFF82890464561
:1002A00003DB0B480DF0C5F8C8E7B95D48460DF013
:1002B000C0F80136F3E700BFF0300100FC30010068
:1002C0000E3101002B310100313101003E310100BE
:1002D0008E52010008B5094804F052FE014620B1D3
:1002E000BDE8084006480DF0A4B8064805F066FBD6
:1002F00000214FF400400CF043F9F9E799010000A8
:1003000084300100600100202DE9F04F91B000938E
:1003100002F004030293C2F3C203013384070546CB
:100320000E46DDF868900392059340F0BB81041DF2
:1003300030B1072909D86FF01B0011B0BDE8F08F6C
:1003400001F00706341DC6F10806009B4FF00008B7
:100350004FF0040A591E4FF0FF3347460193C3463E
:100360005346CDF810800DB1009A22600598002800
:1003700000F3E8809848009A824203D3974882426B
:10038000C0F0E080039AA4EB050E92074FEA9E00AE
:1003900000F103810F2F00F2B180002D00F00581E4
:1003A00007F140020DEB020C019A0CF8200C0CF83E
:1003B000102C049801300490E7E07A285DD84B288F
:1003C0000ED8472859D829282DD8252852D054D8B6
:1003D00020287AD02338D0F1000B4BEB000B74E0CF
:1003E0004C382E2849D8DFE800F070484848484883
:1003F0004848484848484B48484848484848485969
:10040000484B4B595959704B6D487048184B184818
:1004100048827F4B48484B487F0000204FF0000B3C
:100420004FF0040A38E001222A38C0B202FA00F084
:1004300010EA0E0F49D110F0625C2FD110EA020BC6
:1004400043D06046013C5444B4FBFAF40AFB04F484
:10045000002D61D0A3EB050CA4446645FFF46BAFFF
:10046000002868D1042B47D159F8043B23600423AA
:1004700004342AE0019A013A01924FF0000B24E083
:1004800011F8010C6C2834D1002011F8023C83468D
:100490006C2BC5D14FF0080A5346D3E709F1070981
:1004A00029F00709073424F00704F9E802AB35B155
:1004B00006982044B0423FF63EAFC4E900AB4FF08F
:1004C000000B08344FF0080A534611F8010F0028BA
:1004D00078D0BBF1000F7FF470AF2528F5D14FF035
:1004E000010B019B013301934FF0040AECE75846DE
:1004F00094E700208346A5E7082B02D06FF0150093
:100500001BE709F1070929F00709F9E80223C4E903
:10051000002308230834D8E768B9042B02D109F175
:100520000409A4E7082BE9D109F1070929F0070913
:1005300009F10809EDE7059A013A059259F8042BEB
:10054000009210E7039A900720D54FF0010CA4EB1E
:10055000050E4FEA9E00BEF5007FCFD20F2FCDD8FB
:10056000F5B107F140020DEB020E019AC0B20EF890
:10057000200C0EF8102CBCF1000F3FF41AAF60F005
:100580007F000EF8200C08F101080137C5F10802C0
:100590004FF6DA7E0434069297E74FF0000CDAE764
:1005A000BCF1000F01D00136EFE7029802360028B7
:1005B000EBD10098CDE90631FFF7DEFDDDE906312C
:1005C0000644E2E7631BB3F5806F97D245B9A6F105
:1005D0000804E018B1E600BFD4230100A8530100CD
:1005E000029A9B0828602B709DF81030C2B1EB7006
:1005F00085F80280B8F1000F05D0002208A8C5F1E7
:10060000010C97420ED14FF0000AC5F101030DF124
:10061000200901930DF1300B574512D1601B8CE678
:100620006B70E5E710F8013B190608D504EB0C0EDA
:10063000764503F07F03FFF47EAE04F8013B013200
:10064000DFE7B8F1000F03D099F90020002A17DB8B
:10065000029BD3B11AF80B2004F8012B0022019B56
:10066000981820448642FFF466AE99F8000000997D
:1006700004F8010B2046039211F0F0FD039A144494
:100680000AF1010A09F10109C6E799F8002055F8B5
:1006900022300093029B009845F82230FFF76CFD52
:1006A000421CDCE76FF00D0047E600BF2DE9F04F7C
:1006B00095B000AFBB61BB6F0446C3F3C0038A466D
:1006C00090F802B07A623B6141B9457800780BEB53
:1006D00080002044554517D8A0EB040AE3787B61DD
:1006E000BBF1000F02D0BB6FD80716D47B6953BB98
:1006F0007B6A1BB151462046BA6998475546284641
:100700005437BD46BDE8F08F461C3046FFF734FD38
:10071000013030440AF1010ADCE7237862683B6269
:100720009B00FB603B6AFA6104EB83097B6A002B48
:1007300040F0FF80C8460026554609EB0B0AD0451D
:1007400051D1D94413E0BB6F9907D1D5237899468D
:100750003B629B00FB60636804EB8909FB617B6A79
:10076000002B7AD15546BBF1000F4FD15E46BB6FCF
:1007700013F0050F0CBF4FF0020B4FF0010B7B691C
:1007800009EB430ABB6F03F002037B62D145B6D08D
:1007900019F8021B19F8013C54F82380AB4B98451B
:1007A00002D3AB4B984538D33B69002B42D0F86954
:1007B0000CF018FE00283DD0E8468AB06A46A54BEA
:1007C0005361FB69C2E906314FF400731384A24BF5
:1007D00042F8103F00234FF41251A04801F0C6F830
:1007E000023DC546D2E718F8013B54F82300FFF755
:1007F000C3FCFB6F01303BB1D7F880309E423EBF57
:10080000FB6F23F816000136054498E7BB6F13F021
:1008100004061CBF7E6AD944A9E73B6923B1F86985
:100820000CF0E0FD0028C7D1BB6FDA0705D4A5EBBB
:100830000B05ABE77B6A002BA8D04046FFF79CFC7A
:10084000FB6F43B1D7F880309E423FBFFA6F431C25
:1008500022F816300136054498E7BBF1000F6ED040
:10086000BB6F13F004066DD0D846002607F1400098
:100870005A46494611F0F2FC7B69D9445B007B6023
:100880007B6909EB4303BB60BB6F03F002033B6072
:10089000BB684B4558D1B96F6378B86F890748BFBB
:1008A000002106EB030258BF4FEA5801C507D2B238
:1008B00000F19A8010F0040F14BF40460020FB6145
:1008C0006270A070E1702046BA69F9687B6A984747
:1008D000051EFFF614AF3B6A41462370FB69BA69F7
:1008E00063707B6984F802B0E37007F140007B6AB3
:1008F0009847B0F10008C0F2A480FB68AAEB0B0196
:10090000C91A7B684846C91ABA697B6A98470028A1
:10091000C0F299804FF0000BA84408EB000507F1E6
:10092000300AB34562D30021BA6908467B6A98470A
:10093000E5E65E464FF0000807F1300098E75E46B6
:10094000D84699E7B04697E719F8021B3F4B19F8CC
:10095000015C54F82500984202D33D4B98421DD3C8
:100960003B6923B1F8690CF03DFD002890D13B684C
:10097000FBB908F1280307F1280208F1010003EB95
:10098000020C07F1500308F1020853FA80F00CF84A
:10099000101C5FFA88F800F8105C79E73B692BB10E
:1009A000F8690CF01FFD00287FF472AFBB6FDB0706
:1009B00009D506F1280307F12802711C9E1806F8D4
:1009C000205CCEB264E7BB6F58077FF561AF08F1DA
:1009D000280307F1280208F1010103EB020808F8D7
:1009E000105C5FFA81F853E7002068E71BF80A30D3
:1009F00054F8239087F82F30FB6FFBB133F81B803E
:100A00000121BA697B6A07F12F00984700281ADB99
:100A10000544B8F1000F06D14846FFF7ADFB00F1E1
:100A200001081FFA88F841464846BA697B6A984728
:100A3000002808DB05440BF1010B72E7D7F87C8036
:100A4000DEE745465BE6054659E600BFD4230100D4
:100A5000A85301005231010004000001C027010029
:100A6000014B1860704700BF6C01002080B505463F
:100A70000E46174698460BF09DFD034611F0A0FC6C
:100A80000446DFF81890424649F8003039463046AF
:100A9000A84754F8090001F0E1FF00BF080000007A
:100AA0002DE9F047058B04462807904611D402290A
:100AB00005F0070540F0CD8020460CF076FF78B1B8
:100AC0000138218B042811D8DFE800F0C3106D85B0
:100AD000950001290CBF45F0100545F02005258340
:100AE00088F31188BFF36F8FBDE8F08701F0070A24
:100AF000AA4500F0A6800027B9463E46A368002B11
:100B000000F0BD8041F00801218388F31188BFF314
:100B10006F8FA168002900F0BB800D68002900F0EC
:100B2000B780334652462046D1F80480C047002D96
:100B300076D02B6829461D46F0E701F007035A1FBF
:100B4000012A1BD8002221F00701062B276889B251
:100B5000C4E9002209D13B4603E0628B0132628383
:100B60001B68002BF9D141F00201204621830CF0D3
:100B70001CFF00287BD041F0200177E0042B0AD134
:100B800021F0070189B2204621830CF00EFF10B13D
:100B900041F020012183218B01F0070AAA4550D0A2
:100BA0000027B946AAE7236921F0070141F00601B1
:100BB000062DD3F8009021832DD1B9F1000F40D03C
:100BC00041F00801218388F31188BFF36F8F20461D
:100BD0003949C84729E021F00701236941F00401A0
:100BE00089B2042DD3F804902183E6D000274FF07A
:100BF000040A3E4682E721F00701236941F005011E
:100C000089B2052DD3F808902183D6D000274FF064
:100C1000050A3E4672E700274FF0060A3E466DE79A
:100C20002B4687E7B9F1000FD1D14FF02003EFF346
:100C3000118883F31288BFF36F8F238B23F008038F
:100C40002383258BEA062ED525F01003238305F098
:100C500007056669218B002EBFF66FAF002327685A
:100C6000C4E9003321F0070141F001012183218B08
:100C70004FF0000901F0070AAA457FF43FAF002FAB
:100C80009BD041F00801218388F31188BFF36F8F57
:100C9000002FC7D03D6839463346524620460CF0F7
:100CA000B0FE2F46F4E7AB067FF51AAF25F0200320
:100CB000238305F00705FFE62FDA0000044608B598
:100CC0004FF02002EFF3118382F31288BFF36F8F8E
:100CD00009F0CAF8204601F077FE03480CF0A9FBA2
:100CE00001F0CCFFFCE700BF0632010010B530B9BF
:100CF0000B480C490DF0A5F96FF0150010BD836885
:100D000033B9074808490DF09CF96FF00400F5E786
:100D10001B6813B1BDE8104018471846EEE700BF46
:100D2000D82701002F3201004032010010B530B940
:100D30000B480C490DF085F96FF0150010BD836864
:100D400033B9074808490DF07CF96FF00400F5E766
:100D50005B6813B1BDE8104018471846EEE700BFC6
:100D6000D82701002F3201004032010070B508B1D0
:100D700001B132B90B480C490DF063F96FF0150061
:100D800070BD84680CB1E56835B9064807490DF0B7
:100D900058F96FF00400F3E741F8040BE368BDE88D
:100DA00070401847D82701005E3201004032010030
:100DB00010B5044630B9104810490DF042F96FF0F3
:100DC000150010BD006830B90B480D490DF039F918
:100DD0006FF00100F5E783680BB11B6933B9064872
:100DE00008490DF02EF96FF00400EAE761689847B2
:100DF0000028E6D12060E4E7D82701008A3201000C
:100E00009B3201004032010070B51346044630B9F0
:100E1000104811490DF015F96FF0150070BD00680C
:100E200030B90C480D490DF00CF96FF00100F5E7F1
:100E300082680AB1956835B9064809490DF001F98B
:100E40006FF00400EAE70A46AC466168BDE870400E
:100E5000604700BFD82701008A3201009B320100A1
:100E600040320100034A13680BB952681360002036
:100E7000704700BF7001002030B50C460E4985B0A8
:100E80000291D0F8AC110546CDE9003100F1E00146
:100E90004FF0FF3320460AF07DF850B9012384F863
:100EA0006430D5F8A83123B1204605B0BDE8304004
:100EB000184705B030BD00BF3BE1000038B50C4617
:100EC000114605460DF03BF9034638B9284604495A
:100ED0000DF035F903460020236038BD0120FBE703
:100EE0008F5201002DE9F04F0123814605694668C4
:100EF00085B005F55977D7E8EF2F002A03D1C7E869
:100F0000E13F0029F7D10CBF1A46002240F0B18022
:100F1000B368B16A05F5E4781C1F10460DF094F92A
:100F200084425FD8013A00F09E80B2FA82F24FF01C
:100F30000044D44072682046073222F00302C5F80C
:100F40006022B16A0DF080F9C5F86402B36A4046C8
:100F50006343033323F0030302EB4302230103EB58
:100F60004403093323F0030303EBC403C5F85822F9
:100F70001A440832C5F854227368C5F85C42C5F8B3
:100F800050323D4BC5E9A963316800F0DFF90446F2
:100F900030BBD9F804A0D9F81090DAE9073409F584
:100FA000307B012B584608BF103C10F0AFFD0023EA
:100FB000DAF8240031494FF4806201EB802100937C
:100FC000584623460AF022FF09F52C702C4910F0F0
:100FD00043FDDAF8140083685C682CB96FF057049D
:100FE000002139E0013298E74B46264ADAF818101A
:100FF000A04704460028F3D1DAF8140083681B697F
:10100000002BEBD00122DAF818109847044600288C
:10101000E6D11D4B2846C5F8A8311C4BC5F8AC31AC
:101020001B4B0393D5F810320293D5F80832CDE963
:101030000083D5F86832B26AD5F8601300F04EF933
:1010400004460028CCD105F1E0000AF051F8002850
:10105000C5F868030ADB022138460DF0A5F82046E2
:1010600005B0BDE8F08F6FF00B04B9E76FF0150421
:10107000B6E76FF07704F2E791E1000078210020F5
:1010800077E100006BE10000951000001FE3000015
:10109000D9E1000013B5044640B100230122CDE997
:1010A0000032074BD0E9091209F028FFA36E1B6834
:1010B00023B1E06E02B0BDE81040184702B010BD89
:1010C0008F52010013B504460846216901F5597194
:1010D000D1E8AF1F022910D193B1A0B10121CDE910
:1010E00000311346D0E9091209F008FF074B984276
:1010F00008BF6FF00B0002B010BD6FF00F00FAE7F1
:101100006FF04C00F7E76FF00100F4E72EF8FFFFF7
:101110002DE9F74388461546066906F55973D3E865
:10112000AF3F022B5FD1136823B96FF0150003B0F6
:10113000BDE8F0831B78002BF7D0D6F86093B9F1A7
:10114000000F33D106F5D8774FF0FF324FF0FF3361
:1011500038460AF0E9FB30462A6801A9FFF7AEFEDF
:10116000019C1CB938460DF01DF8DEE705F10803B7
:10117000A3666B6984F86490E366E46360B1384603
:101180000DF010F821463046236E2A68FFF774FEF2
:101190000020C8F80040CAE72022296804F1400076
:1011A00011F093F838460CF0FDFFF1E730460F4997
:1011B0000CF0C5FF04460028B7D005F1080383668C
:1011C0006B69C063C366002380F8643020222968FD
:1011D000403011F07AF822460121304600F060F8E4
:1011E0000028D5D0A1E76FF00F00A0E78F520100D3
:1011F00010B50C46006900F55973D3E8AF3F022BD8
:101200000FD189B10A4900F52C7010F063FC20461B
:101210000FF0DDFF70220021204611F02CF8002095
:1012200010BD6FF00F00FBE76FF00100F8E700BFA3
:10123000981500202DE9F04F05460E4690460027F0
:10124000D0F8B0A085B0AAF5AE7421463046FEF7BE
:1012500081FFE0B9114BA4F1400B0293DAF8103092
:101260003246CDE9008329464FF0FF335846AAF5B0
:10127000CE7909F08FFE60B97023012203FB07933A
:1012800083F86420DAF80C300BB158469847703474
:1012900017B105B0BDE8F08F0127D6E74DE3000098
:1012A0001FB5144690B18AB1012912D10A4B00F141
:1012B000E0010293D0F8AC31403201934FF0FF339C
:1012C0002046009309F066FE04B010BD6FF01500D3
:1012D000FAE70020F8E700BF4DE300002DE9F043F6
:1012E00087B00E46DDE90E811446DDE910251F4664
:1012F00030B329B3DFF850C000F1E009002D08BF7A
:1013000065469EB9CDE9034400F5CE7420460596A6
:1013100010F082F903ABCDE900432A463B46414633
:10132000484609F00BFF07B0BDE8F08300224146B4
:101330000E9248462A4607B0BDE8F0430AF02AB8A4
:101340006FF01500EFE700BF35120000F0B50E4654
:10135000044689B000286FD001230246C3630023EE
:10136000D0F89810364F403040F80C7C42F8301FCF
:10137000CDE901334FF0FF330093C36D0FF00CFC48
:10138000304A06AB92E8030083E80300184609F0F0
:10139000C7FC0546D8B904F1340009F0A3FC0546A2
:1013A000A8B93946284805AA0FF0D2FB054670B9FE
:1013B000059B9A6872B10C33D4F89400C4F8A0303D
:1013C0000CF0F5FFC4F8D40030B96FF00B052846D7
:1013D00009B0F0BD0346EFE7D4F894000CF0E7FF46
:1013E000C4F8D8000028F0D0D4F88C30D4F8A0107D
:1013F000C4F8A8300423C4F8AC30C4F8C4300223C5
:10140000A362124BB4F89420D4F8D470C4F8B81086
:10141000C4F8D010D4F89010236204F1A403A4F807
:10142000B020C4F8A470C4F8C010A4F8C820C4F850
:10143000BC00A661E362CAE76FF01505C7E700BF0D
:10144000C532010074280100CF32010024290100B7
:101450002DE9F047044607464FF00109DFF85080B8
:1014600014B93846BDE8F08794FAA4F5B5FA85F5C5
:1014700009FA05F32E0108EB05156FEA030A24EAC1
:1014800003042B7B002BEBD058F806301B694BB9BB
:101490004644736804222846196807EA0A0700F0E0
:1014A00051FADDE7284698470028D9D1F0E700BF78
:1014B0004828010030B5002289B00F490F4810F0CC
:1014C0003AFD002200230024CDE906230E230C4D13
:1014D000CDE903344FF440722846CDE90144094B6D
:1014E000094900940AF06CF90849284610F075F98A
:1014F000204609B030BD00BF11150000F80E0020D5
:10150000700A0020E917000078250020D73201007A
:1015100001480AF0B7BA00BF840500202DE9F04762
:1015200080461F480F460CF094FF0646002830D036
:1015300000252846BDE8F087237B73B12368DB686C
:101540000BB12046984723681B69D3B9636804220E
:101550002046196800F0F6F9013610344C45EBD3FB
:10156000B8F1000FE5D0002DE2D02846FFF770FF5C
:101570000546002FF7D000214FF4A4700BF000F8BF
:10158000F1E7204698470028E0D00AFA06F31D4309
:10159000E2E705464FF0010A024CDFF80C90DDE768
:1015A000D01500204828010058280100014B53F8AD
:1015B000200070476429010008B5034608462BB196
:1015C000044A136000F072FC002008BD6FF01500A3
:1015D000FBE700BF9C01002010B5044C237813B931
:1015E00003480AF04FFA0123237010BDCC200020DD
:1015F0008405002010B5044606480CF02AFF3CB1D3
:10160000054BD3E8EF1F0139C3E8E21F002AF8D1E8
:1016100010BD00BFC8150020CC15002000200146D9
:10162000034BD3E8EF0FC3E8E21F002AF9D170475C
:10163000C815002070B5FFF7F1FF0546074C084EAE
:10164000B44200D370BD63685B792BB123685B68DB
:1016500013B12946204698471034F1E74828010085
:101660005828010010B5044C044920460CF08EFBAC
:10167000034B1C6010BD00BF700400205029010006
:10168000C015002008B50023074A4FF4004113702D
:10169000064A07481360074A1360FFF78DFFBDE84D
:1016A0000840FFF7DFBF00BFCD200020C815002095
:1016B0004FE40000CC150020014600220023014821
:1016C0000CF085BB7004002001480CF01EBC00BF6C
:1016D00070040020024B014618680CF068BC00BF83
:1016E000C015002001480CF09EBC00BF7004002013
:1016F00070B5264B1878002847D0FFF7E5FF054660
:1017000070B1234BD3E8EF1F0139C3E8E21F002A71
:10171000F8D1204C204EB4422DD32846FFF7DAFFF3
:101720001E4B1F4C1B68002B19DD10F0BDFB4FF446
:101730007A72A0FB020302FB0131C30B43EA41436F
:10174000D4E900209B1A40F2E9324FEAD13161EB33
:101750000001934271F1000101D3FFF76BFFD4E95F
:10176000003213F57A7342F10002C4E90032BDE899
:101770007040FFF7B7BF63685B7923B123682946E0
:1017800020461B6898471034C5E770BDCC20002068
:10179000CC1500204828010058280100C815002059
:1017A000F00E002070B50D4D297861B90120FFF7CA
:1017B000B5FE0B4C0B4EB44206D3FFF799FF002841
:1017C000FBD101232B7070BD63685B791BB123686B
:1017D00020469B6898471034EDE700BFCD200020DD
:1017E000482801005828010000212DE9F04708464B
:1017F000FFF794FE044658B340F267684FF00009C3
:1018000010F0DEFD1B4B1C4A1B58136033B11B4B01
:101810001B68092B02DD1A480AF034F90025194F1C
:10182000DFF85CA044B12046FFF712FE044618B969
:101830004FF0FF384FF0FF39FFF75AFF064628B93F
:10184000B5B942464B4650460AF042F93546E9E7FB
:101850004FF0FF384FF0FF39D2E72B689B691BB17F
:1018600000222846114698471035BD42F5D3E8E7D7
:10187000054DFAE708000000C4150020CC15002033
:1018800084050020582801004828010013B5184895
:101890000CF0DFFD174B1B787BB14FF02003EFF30B
:1018A000118483F31288BFF36F8FFFF721FF84F356
:1018B0001188BFF36F8F02B010BD0F4B1B68002B58
:1018C000F9D050B9002200230C48CDE900234FF491
:1018D000004200230BF052F8EDE70928EBD107484E
:1018E00010F035FB064802B0BDE810400AF0CAB857
:1018F000CC150020CD200020C4150020F80E0020BB
:101900008405002010B5064B04461B689847214605
:10191000A06004480CF0D9FABDE81040FFF7B6BF4C
:101920009C01002070040020044A054B9B1AB1EB77
:10193000D30F34BF52F83100002070475827010000
:1019400048280100084B10B4C31A44681B11013326
:10195000237143689A7101224368196043685A7180
:1019600010BCFFF739BE00BF482801002DE9F04F39
:101970008FB0C1F34A2804AF0D469146B8607B6032
:101980000C0DB8F1000F63D000264FF0040B4FF0A0
:101990000A0A07F11403C7F80C80C7E907667E62DC
:1019A0000193CDF808B0CDF800A007F11C03324632
:1019B0004846F968FEF77AFEB0F5006F03461CD37F
:1019C0006C468AB0D9F8041004AB26481A46C3E91D
:1019D000050140F2FF71D9614FF400711984224B67
:1019E00042F8103F4FF4125133462048FFF7BEFF34
:1019F000A5462C37BD46BDE8F08FC0F30A0804F1B8
:101A00001700184420F0070080083B60FFF754FEE1
:101A100068F35325044690B13B6800F11001C7E913
:101A2000083607F11403F961CDE900A3CDF808B039
:101A300048460F4AF96807F11C03FEF737FE68F3C2
:101A400053252A4620467B68B9680CF034FDD0E760
:101A500004F1170020F007008008FFF72DFE044670
:101A6000EDE700BFEC32010004000001E0270100B7
:101A70008BE400002DE9F04F87B00446DDE9105AF1
:101A8000DDE912690F4693469846A6B31021334606
:101A900052460020CDF80090CDF81490FEF734FCAB
:101AA000014605F117000844144B04F007040BF03D
:101AB000070BE40020F0070003EA412344EA8B14FB
:101AC00080081C430391FFF7F7FD44EA05540546DF
:101AD00040B13EB1334652460399CDF800901030E4
:101AE000FEF712FC434622463946284607B0BDE8B9
:101AF000F04F0CF0E0BC3146D3E700BF00FE0F0012
:101B00000EB403B503AB53F8042B0146044801930C
:101B100001F01AFB02B05DF804EB03B0704700BFA0
:101B2000C9E50000CA0605D48B064CBF024903492B
:101B3000FFF7E6BF704700BF8E5201008D520100D3
:101B40002DE9F04F89B09B46DDE916769DF84C30C3
:101B500004460493DDE914930593049B0D46069215
:101B6000002B00F0878006F0080307930CF08BFC35
:101B700006F0020A024600284BD020468549FFF7AE
:101B8000BFFF8046BAF1000F08D016F0440F42D1D3
:101B90002A4620468049FFF7B3FF804406F0010340
:101BA0005BB17E4B049A204653F822207C4B7D4942
:101BB000002A08BF1A46FFF7A3FF06F00803002B10
:101BC00055D0794B049A204653F822207749FFF7E5
:101BD00097FF0546069B2BB11A4620467449FFF72E
:101BE0008FFF0544BBF1000F05D05A4620467149CE
:101BF000FFF786FF05444544B9F1000F49D1002F96
:101C00004FD1F30700F1C08031462046FFF78AFF2D
:101C1000B4E08046B6E7684B18680028BDD0674B33
:101C20004FF47A7E1B684FF46162B5FBF3F5B5FBA8
:101C3000F0F300FB13550EFB05F5B3FBF2FAB5FB11
:101C4000F0FC3C2102FB1A3200FB1C55B2FBF1F305
:101C50000EFB05F5B5FBF0F501FB132220460092C3
:101C6000CDE901C552465649FFF74AFF95E706F010
:101C70000805AFE7BBF1010F06D1B9F1000F64D140
:101C8000002F7BD000250CE0B9F1000FF8D04D48B3
:101C90005CE04D484B4622464C490BF072FB002F4E
:101CA00068D0DFF82C91DFF82CA1102F31462046A8
:101CB000B8464FF0000B28BF4FF01008FFF732FF77
:101CC0005D4545DC059B514620461A78FFF718FF15
:101CD0004FF0010B1BF0070F03D149462046FFF7D9
:101CE0000FFFD8453BD9059B5146204613F80B20E2
:101CF000FFF706FF0BF1010BBBF1100FEAD14FF01C
:101D0000000B20463449FFF7FBFE5A46059B204650
:101D10009A5CA2F120015F2928BF2E222F49FFF7EC
:101D2000EFFE0BF1010BBBF1100F1DD01BF0070FE5
:101D300003D149462046FFF7E3FED8455A46E5D889
:101D400049462046FFF7DCFEEBE71F48049DA1E76C
:101D500049462046FFF7D4FE0BF1010BB0E72046C1
:101D60001F49FFF7CDFEC5E7059BB7EB08074344C6
:101D700005939AD1049B002B7FF443AF204609B012
:101D8000BDE8F04F0CF013BC2046054A0549FFF7AB
:101D9000B7FE39E730330100343301007429010004
:101DA0002B33010040400100882901005933010014
:101DB0005F33010063330100D8150020D4150020E3
:101DC0003D330100F7E50000C9E50000493100009E
:101DD000595201002B310100683301006A330100C0
:101DE000575201002DE9F0410F884B6805460C461B
:101DF00090468E6886B0C7F382175BB1144A9B1A6F
:101E000043F3CF01002920DB2078C0F3C200FFF7A5
:101E10008BFD0346214651F8102B6088C2F34A22FD
:101E2000002A01EB020408BF00210022C0F30B10BE
:101E3000CDE90408CDE90214284631460197009205
:101E4000FFF77EFE06B0BDE8F0810023E2E700BFA9
:101E50005827010042F20F7373B58B4228BF0B461F
:101E600005680446052168460D4A0BF003F806464E
:101E7000636828460B225B680A490CF08BFB636899
:101E80003246694628465B680CF084FB63681B2277
:101E900028465B6804490CF07DFB02B070BD00BFB2
:101EA0006A3B0100893301006D33010000210123E9
:101EB000064A904206D8064A01B901231360054B31
:101EC00018607047012140085B00F2E740420F00B4
:101ED000D4150020D8150020F8B50D460446064F4D
:101EE0004618B44201D12846F8BD14F8011BBB685E
:101EF00001485B689847F4E7C0240100014B036088
:101F000000207047D02901000449431E0F3013F808
:101F1000012F8A5C83421A70F9D17047DB330100CC
:101F2000F0B50746264E8DB001AD0C460FCE0FC55D
:101F30000FCE0FC596E8070085E807003846002F4A
:101F400039D0002C39D0381F0246214610344B7846
:101F50000D781B0443EA0563CD7804312B4311F857
:101F6000025C8C4243EA052342F8043FEFD104218E
:101F7000144C8A07036916D1C3F30742A55C1A0EF5
:101F8000A25C42EA0562C3F30725655DDBB2E35C50
:101F900042EA054242EA032221F0030330336B4454
:101FA00053F82C3C534050F8042F013153402C2956
:101FB0000361DED101200DB0F0BD2046FBE700BF7C
:101FC0007C280100DB3301002DE9F04F0027036876
:101FD0009DB002934368DFF8BCA103938368DDE9F9
:101FE00002460493C36805930369DDE904BE0693C2
:101FF000436907938369DDE9062C0893C369984612
:102000000993089B0093CD590CAB2DBA5AF8049B49
:10201000DD514FEAF223A94483EAB213009D83EA1B
:1020200072634B4425EA020502EA0C0985EA0905B8
:102030002B44434486EA0B054FEA743888EAB40817
:10204000254006EA0B0985EA090588EAB4580437F1
:10205000A844402F03EB0E054344DE46DDF8008024
:1020600040F088804FF0100A4B490A9151460AF11E
:10207000010A0DF1700E0AF00F070EEB870757F8F3
:10208000407C01F00F094FEAB748019788EAF7183A
:1020900001F10E0707F00F070EEB870757F8407C9A
:1020A00009314FEAF74E8EEA774ECDF82CE001F079
:1020B0000F010DF1700E0EEB81010EEB890959F83D
:1020C00040EC51F8401CBAF1400F7144DDF804E0D7
:1020D00088EADE08DDF82CE041448EEA972E714450
:1020E00005EA02084FEAF52E2CEA050787EA0807F9
:1020F0008EEAB51EDDF828808EEA756E774458F8B2
:1021000004EF49F8401C77440F4400994FEA733EAE
:10211000394484EA0607CDF828808EEAB30E07EA30
:10212000030704EA06088EEAB35E87EA08077744E5
:102130000F4401EB0B0ECDF800C0B34622D102993B
:102140003944016003991944049B4160234483602E
:10215000059B3344C360069B73440361079B2B4478
:102160004361089B13448361099B6344C3611DB0B1
:10217000BDE8F08FB346CDF800C0264694461C4615
:102180002A4640E7944626462A461C4675463B4664
:102190006CE700BFD02901000C2A010010B50446ED
:1021A000C8B1702200210CF069FA0B4B0B4A0C49A4
:1021B000C4E900230B4B0C48C4E902130B4BC4E9E0
:1021C000040301200A4BA36103F17453A3F5230315
:1021D000A3F69243E36110BD85AE67BB67E6096A6B
:1021E00072F36E3C3AF54FA57F520E518C68059BF9
:1021F000ABD9831F01480AF0FBBC00BFD02A010005
:1022000038B5044618B90F4B0F485B6898476168AA
:10221000B1F5683F10D0B1F5680F0DD00B4DA94254
:102220000AD011F46861206807D0014608480FF011
:10223000A8FA00232360656038BD142210F01BF853
:10224000F9E700BFA8030020DB3401002C5F5CA984
:10225000081B002008B560B34368B3F5683F0ED093
:10226000B3F5680F18D0144A934220D000684FF09D
:10227000FF324FF0FF3309F057FB58B115E0012250
:102280000368D3E8EF1F002903D1C3E8E02F00283B
:10229000F7D10AD1002008BD0368084A1B7803F56E
:1022A000807352F82330002BF4D00548F3E705483B
:1022B000F1E76FF4E040EEE72C5F5CA9000003500B
:1022C000E98FFFFFEA8FFFFF08B520B34368B3F53E
:1022D000683F09D0B3F5680F13D0114A93421DD05F
:1022E000006809F0E5FA14E000220368D3E8EF1F64
:1022F000012903D1C3E8E02F0028F7D109D009480C
:1023000008BD00210368084A1B7803F5807342F872
:1023100023100020F4E76FF4E040F1E70348EFE713
:102320002C5F5CA9E98FFFFF00000350EA8FFFFFDD
:1023300010B5044618B91D4B1D485B689847636883
:10234000B3F5683F2FD0B3F5680F2CD0194A9342EC
:1023500019D1236803BB4FF0FF324FF0FF33214602
:10236000154809F0C1F908B923681BB90F4B134888
:102370005B6898471422002120680FF07CFF4FF41F
:102380006863636008E0B3F5683F0DD83A2B03D06B
:1023900040F6BA629342DED120680FF039FA6368E2
:1023A00043F03A03636010BD054AF3E7A803002039
:1023B000DB3401002C5F5CA9081B00200135010003
:1023C0003A00003A08B506494023142205480FF0A8
:1023D000CAF9BDE80840044904480AF07BBC00BFC4
:1023E00008160020081B0020D82A0100EC2A010052
:1023F0002DE9F04780460C4600AF002936D0D1E9E0
:102400000012E9468AB06D46A3684FF0050A2E46D1
:102410001A48C5E90723C5E9050146F810AF0023AE
:1024200032464FF421511648FFF7A0FAD4E90312BF
:10243000CD466369AD461348C5E90723C5E90501E3
:10244000C5F810A0002332464FF421510C48FFF785
:102450008DFACD46E36901210B4A09480CF084F856
:10246000A3690121094A06480CF07EF8214640463E
:1024700008F0A6FFBD46BDE8F08700BF2E3501007D
:10248000282801005D3501008C3501009B350100D5
:1024900030BFFFF7FDBF00BF114B124A2DE9F041DD
:1024A000D518013DB5FBF3F5DFF83C805D430F4BDC
:1024B000074608EB0304013CB4FBF3F403FB0454AC
:1024C0000E1B30460A490FF0C9FE70194246002122
:1024D000083E0FF0D0FE7E6704F10800BDE8F081F1
:1024E00001000000000000000400000004000000E3
:1024F00058280100044B99685869884203D0034961
:102500004FF080520A607047A81E002004ED00E0E2
:1025100070B52A4C06460D4629482A490CF004FDA0
:10252000A36ADB0647D5264827490CF0FDFC11209D
:10253000A36A1C0704D5224824490CF0F5FC12209C
:102540001E4CA36A990712D521491D480CF0ECFCDA
:10255000636BA26A120609D501211E4A18480CF0C5
:1025600003F81EB1A36A23F08003A3621320134C67
:10257000A36ADE0704D5124817490CF0D5FC1420D5
:10258000A36A9C0604D50E4814490CF0CDFC152016
:102590000A4B9A6AD10658BF9A6A9A6A920642BF53
:1025A0005A6A22F400525A629A6A42F0FF029A6210
:1025B00000232B7070BD1020BAE700BF00ED00E0D3
:1025C00028280100C9350100DF350100123601005D
:1025D000253601003D3601005336010072360100F8
:1025E00010B5244C244925480CF09EFCA36A99019F
:1025F0003ED5224822490CF097FC1E20A36ADA013E
:1026000004D51E481F490CF08FFC1F20194CA36AEB
:10261000DB0204D519481C490CF086FC0220A36A91
:102620001C0304D5154819490CF07EFC2120114CDF
:10263000A36A590304D5114815490CF075FC2220F2
:10264000A36A9A0304D50D4812490CF06DFC2320AF
:10265000084CA36ADB0304D508480F490CF064FC5E
:102660002420A36A6FEA03436FEA1343A36210BDF9
:102670001D20C3E700ED00E0A1360100282801007D
:10268000B9360100CC360100E636010010370100F2
:102690002E370100533701006D37010070B5294C0A
:1026A00006460D46284829490CF03EFCA36AD90489
:1026B0003CD5254826490CF037FC1720A36A1A059B
:1026C00004D5214823490CF02FFC18201D4CA36A87
:1026D0009B0512D51C4820490CF026FCA36BA26A6E
:1026E000100409D501211D4A17480BF03DFF1EB10A
:1026F000A36A23F40043A3621920124CA36A59056C
:1027000004D5114816490CF00FFC1A20A36ADA050B
:102710000ED50D4813490CF007FC1B20094A936A9B
:1027200043F47F43936200232B7070BD1620C5E7EE
:10273000A36A9B04F2D504480B490CF0F5FB1C205E
:10274000ECE700BF00ED00E0282801009837010009
:10275000AE37010012360100BF370100D837010043
:10276000ED37010008380100723601002DE9F04113
:102770008AB0654B0446D3F80480002600AFC8F346
:10278000080586F31188BFF36F8F02F07F43B3F122
:102790007F4F07D102F00C03082B12D15B495C4834
:1027A0000CF0C2FB002634460023FB71EB1E092B04
:1027B00000F28980DFE803F00A7F827C87878787C1
:1027C000878510074CBF0C460126EDE7514950485C
:1027D0000CF0AAFB00234C4DFB71EB6A9A0705D560
:1027E0004D494B480CF0A0FB002332E0EB6A002B74
:1027F00001DA4A49F5E7EB6A5B00F5D548494448F8
:102800000CF092FB6B69A26943F480736B61BFF3B8
:102810004F8FBFF36F8F6B6932F8022C23F48073F4
:102820006B61BFF34F8FBFF36F8F4DF602739A4208
:1028300008D0AB6ADBB273B30120F91DFFF768FE65
:10284000034606E023680121364A31480BF08CFE2E
:102850002368FA79DAB907F1080504F1200C2A4651
:1028600020686168083403C264451546F7D17A6A66
:10287000002E44D0C2F3080121B96FEA52226FEA58
:1028800042227A62184607F10801FFF7B1FD2837A6
:10289000BD46BDE8F081AB6A13F47F4F04D0012040
:1028A000F91DFFF7FBFECBE7AB6AB3F5803F9BD387
:1028B000FFF796FEC4E70020F91DBFE70020F91DD1
:1028C000EFE719498DE7194A18F4F87FE8468AB00E
:1028D000174B18BF13466A461649103DC2E9051347
:1028E0004FF400731384144BD56142F8103F00235A
:1028F0004FF411510648FFF739F8C54674E722F442
:10290000FF7222F00102BCE700ED00E04E3801004A
:10291000282801007938010090380100B138010001
:10292000BF380100DE380100FA38010035380100F7
:10293000203801001E39010004000001044B5A69CF
:1029400042F010025A615A6942F480625A6170473B
:1029500000ED00E0EFF30880EFF3098101B5724666
:10296000FFF704FF01BD00BF002080F31488BFF310
:102970006F8F002080F30A8880F30B8800F090FDB1
:1029800000200E490860BFF34F8F0D4880F3088880
:1029900000F03EF8202080F311880A484FF40061CF
:1029A000401880F30988EFF314800221084380F374
:1029B0001488BFF36F8F00F009F9000094ED00E078
:1029C00010480020D0360020BFF34F8F0549064B3A
:1029D000CA6802F4E0621343CB60BFF34F8F00BFBD
:1029E000FDE700BF00ED00E00400FA0500231846F3
:1029F0000649D1F89020C2F30722934200DB7047CA
:102A0000C1F89830C1F8A0000133F6E700ED00E00E
:102A100010B572B6002484F31388FFF7E7FF23464E
:102A20004FF0FF300C4A03F120010133102B42F824
:102A30002100F8D100234FF0FF30074A03F1600175
:102A40000133102B42F82100F8D162B6BFF34F8F4B
:102A5000BFF36F8F10BD00BF00E100E0084B9B6823
:102A600083420BD1EFF3058343B1064B5A6842F022
:102A700080525A605A6A22F400425A620FF0B6B984
:102A8000A81E002000ED00E06FF00A01084A9368DC
:102A9000D967084998674B6843F080534B6000231F
:102AA00083F31188BFF36F8F9368D86F704700BFAF
:102AB000A81E002000ED00E016498A684FF03000A3
:102AC0001044EFF3098C80E8F01F202080F3128877
:102AD000BFF36F8F104F4FF000664A698A603E6007
:102AE0004FF07404141920680C4C2060906F002380
:102AF000936780F3118802F1300090E8F01F8CF3A7
:102B0000098802F1000004B50CF016FABDE8044093
:102B100070470000A81E002004ED00E0241B0020E8
:102B20001EF0040F0CBFEFF30880EFF309808169FA
:102B300011F8021C0229FFD001B50CF0EAF901BD21
:102B400040B2002807DB01234109034A00F01F00BF
:102B5000834042F82130704700E100E040B2002895
:102B60000CDB01220649430900F01F00824020339C
:102B700041F82320BFF34F8FBFF36F8F704700BF23
:102B800000E100E0054B420953F82220012300F048
:102B90001F0003FA00F01040704700BF00E100E0A2
:102BA00040B2002801F10101ACBF00F16040064BCA
:102BB0004FEA4111C9B2ABBF00F5614000F00F0010
:102BC00080F800131954704714ED00E00B4A08B563
:102BD0000B4B22F07F029A60BFF34F8FBFF36F8FD2
:102BE000D3F8882022F47002C3F8882008F09CFCF7
:102BF00009F0F8FC00F078F808F0E0FC00000000B4
:102C000000ED00E042F8203C009B0B4942F81C3CE0
:102C1000019B21F0010142F8183C029B42F8081C7C
:102C200042F8143C4FF0807342F8043C0023203AF1
:102C300002658367704700BF6D0A00000A4B446F4E
:102C400098600A4B1C60436E83F30B88104681F337
:102C50000988002163B681F31188BFF36F8F0022CA
:102C60000023FDF703FF00BFA81E0020241B002047
:102C7000014910220A60704710ED00E072B6404032
:102C800080F31188BFF36F8F01B500F007FB0028B8
:102C90000AD0BFF34F8F30BF00BF00BF00BF00BFDF
:102CA00000BF00BF00BF00BFBDE8014062B6BFF378
:102CB0006F8F704772B6494081F3118801B500F0FB
:102CC000EDFA00280AD0BFF34F8F20BF00BF00BF2E
:102CD00000BF00BF00BF00BF00BF00BFBDE8014094
:102CE00080F3118862B67047002320210348C21880
:102CF0000133452B82F80013F9D1704700E100E061
:102D000001B5EFF30580A0F110004FEAC0000449BF
:102D1000014409C99847BDE801400249084700003D
:102D2000FC240100F52400001FB5094C094A234684
:102D30000121094800F00AF900230393074B012100
:102D4000E41A01A80193029400F00AF904B010BD3E
:102D50000000072000000020FC2A010000070020DE
:102D600010B50C7A0B6804F01F0223F01F031A43FE
:102D7000CB68640923F01F03054943EA440343F089
:102D80000103C1F89800C1F89C20C1F8A03010BD23
:102D900000ED00E0072810B508D901210346054AD7
:102DA00005480BF0E1FB6FF0150010BDFFF7D8FFF1
:102DB000FBE700BF35390100002801002DE9F04F85
:102DC0008946144606464FF00008514D85B0C84567
:102DD00027DAD6F804A0BAF1000F44D0BAF11F0FD9
:102DE00017D91AF01F0F14D1D6F800B01BF01F0F1F
:102DF0000FD158460CF0A4F807460AEB0B00013837
:102E00000CF09EF8874210D06FF01507414A3B4600
:102E100001E04346404A012140480BF0A5FB6FF01A
:102E20001504204605B0BDE8F08F17F1160FEDD060
:102E3000BC42EBDDC5F89870D5F89C10C5F89870C9
:102E4000D5F8A03021F01F0143F01F0BD6E9003266
:102E50001A44994202F1FF3A1DD1D34507D13146B8
:102E6000F8B20CF076F808F101080C36AFE73146FD
:102E7000C5F89870D5F89C3022F01F0203F01F03AC
:102E80001343C5F89C30E0B20CF063F810F1160F54
:102E9000C5D0441CE7E7C5F89870D5F8A020013BE1
:102EA00023F01F0302F01F021343D3453146E0B263
:102EB000C5F8A030E8D00CF04CF810F1160FAED0E9
:102EC000C5F89870D5F89C209DF808300BF1FF3BB1
:102ED00062F304038DF80830D5F8A0309DF808207F
:102EE0005B0863F347128DF80820D6E900321344DB
:102EF000009323F01F035B44A3EB0A03013023F08C
:102F00001F036946C0B20393FFF744FFBEE700BF4B
:102F100000ED00E07E3901005B390100002801006E
:102F20000522044BC3F89420BFF34F8FBFF36F8F7C
:102F3000704700BF00ED00E0BFF35F8F0022024B3F
:102F4000C3F89420704700BF00ED00E010B5034CBB
:102F50002278FFF733FF207010BD00BFCF20002084
:102F60002DE9F74F294D8A4606464FF00008AB463B
:102F7000274FD0451BDAD6F80490B9F1000F3FD0A7
:102F80003168084601910BF0DBFF0199044609EB1B
:102F9000010001380BF0D4FF84424FF014021D4BA6
:102FA00008D002FB08F36FF015024BF8032003B0C2
:102FB000BDE8F08F14F1160F2C60F8D01978A142FB
:102FC000F5DD02FB08B0C7F89840C7F89840D7F87D
:102FD0009C4000F10801007B64F304000871D7F8FD
:102FE000A0000C79400860F347140C71D7F89C10CE
:102FF00021F01F016960D7F8A01021F01F0129619D
:1030000008F1010814350C36B3E700BF281B002077
:1030100000ED00E0CF200020F0B53A4D87B02C68DD
:10302000082C6CD80020FFF787FF374B374AC3F8CE
:10303000C02084420DD1364D01A82C70FEF75EFFF2
:1030400000240646334FA6420AD1FFF769FF00204D
:1030500053E0696801EB0011FFF782FE0130E8E7F9
:103060000199200101EB0413DA683A40B2F5001F20
:1030700022D0B2F5800F2CD0B2F5801F36D15A681D
:103080009B680958013B22F01F000344012084463D
:1030900023F01F0340EA4C10CDE902218DF8100007
:1030A00002A928780593FFF775FE002823DB2B780B
:1030B000013401332B70C6E75A689B680958013BFD
:1030C00022F01F0003444FF0020C012023F01F03E5
:1030D000E0E75A689B680958013B22F01F0003444F
:1030E0004FF0000C062023F01F03D3E701210A4A0A
:1030F0000A480BF030FA6FF0150007B0F0BD4FF042
:10310000FF30FAE7082B010000ED00E0AAFF4400C1
:10311000CF2000200000F0FFA139010000280100AD
:1031200008B5024B1B689847002008BD3C1B0020D7
:10313000034B044A1860937843F00203937070477E
:103140003C1B0020C8010020F0B587B007460E46A2
:1031500014460021102268461D460FF08CF8022309
:103160008DF80230054B2A4621466846CDE90476A3
:10317000019309F0ABFE07B0F0BD00BF85EF000082
:1031800008B50649064821F00701C1F1005202F5D1
:10319000E0220AF0B2FB002008BD00BF3F6800201B
:1031A000401B002000F01F0240090DD001280DD166
:1031B000094B03EB8203D3F8002222F0E04242EAFB
:1031C0000171C3F800127047044BF2E7002380320C
:1031D00053F82230FFDE00BF0028845000258450C1
:1031E00038B50124134B144DC3F8004502230321C5
:1031F000C5F8D0360020FFF7D5FF20460321FFF7A2
:10320000D1FFC5F804472146C5F804492120C5F877
:10321000004BFFF7C7FF21462020FFF7C3FF2146E1
:103220000B20FFF7BFFF21460A20FFF7BBFF00205E
:1032300038BD00BF001000500040005007B50DF130
:1032400007000DF050FB114B98421CD14FF48062E7
:103250000F4B1049C3F8B8254FF40062C3F83C2562
:103260009DF807000DF02BFB0B499DF807000DF0B2
:1032700021FB01209DF80730984006F04DFF00200B
:1032800003B05DF804FB6FF00B00F9E70000AD0B35
:1032900000A002502CA0025028A10250052370B5B6
:1032A000144D154E2C780134B4FBF3F303EB830378
:1032B000E41A0DF0EDFA114A137823B156F82430D0
:1032C000C01A072814D94FF05023D3F8141141B174
:1032D0000021C3F81411D3F814312C700CB9012358
:1032E00013702C780DF0D4FA46F82400012070BD3C
:1032F0000020FCE7D12000204C1B0020D020002023
:1033000048B1054B054A1B68B3FBF2F35843044B25
:1033100043F0010318477047E002002040420F00CD
:10332000F028010070B5049CC4F30726304606F06F
:10333000A1FBE5B2014628460DF0CDFA002201209E
:10334000074BA40B04F0FC041A51A84006F0EAFE57
:10335000304606F043FD2846BDE8704006F0D6BF73
:1033600080A0025073B501A806F0CAFF264B984210
:1033700047D106F015FD041E0ADA9DF8040006F098
:10338000C5FF01212346214A21480BF0EDF835E025
:1033900040F607031F4D8DF80540AE68ADF80630C6
:1033A0007468019B14B96FF05704EAE708212846B6
:1033B000194AA047041EE4DB3369002BF3D0012235
:1033C000082128469847041EDBDB01209DF80430C5
:1033D000984006F0A1FE9DF805009DF804509DF868
:1033E00007600DF040FA014628460DF068FA0B4BD5
:1033F000B60045F000459D51002CC2D1204602B0D8
:1034000070BD6FF01204BCE70000AD0BD6390100AF
:1034100038280100D42401002134000080A102508A
:103420002DE9F341144683681B690BB100229847CC
:10343000C4F30726304606F025FB054630460DF05E
:1034400012FA4FF00008E7B2014638460DF047FA8D
:10345000104B220E920043F80280304606F00AFB21
:103460000D4A4FEA943C0CF0FC0C47F0004342F844
:103470000C30014638460DF01DFA084B05F13202BA
:10348000009330464346019452000DF0F5F902B026
:10349000BDE8F08180A1025080A0025025330000D9
:1034A00006F01CBD1022174B70B5C3F840244FF432
:1034B0007F03D3F83021D3F83431072A1BD1023BE4
:1034C000032B02D8104AD35CABB14FF05024012635
:1034D00000250520C4F81866C4F814560DF0E8F964
:1034E0003046C4F814660DF0E3F9C4F81456C4F875
:1034F0001856002070BD4FF050230022C3F8142648
:10350000F7E700BF00300050073A01000E4B40299A
:1035100028BF402170B51D460C4C4618B04203F13F
:10352000020304D1002305F81130074870BD02786A
:103530001209A25C03F8022C10F8012B02F00F0212
:10354000A25C03F8012CE9E7F0200020833A010097
:1035500030B503788BB0044607AD032B21D8DFE8E4
:1035600003F0021A1C1E12492846FCF7FDFD0595C2
:1035700063781E210493A3780E4A0393E3780E48E0
:1035800002932379019363790093A37909F072FC84
:1035900009480BB030BD0949E6E70949E4E70949A4
:1035A000E2E70A212846084A09F064FCDFE700BF89
:1035B0003E3A0100603A0100D2200020453A010065
:1035C0004C3A0100563A01007E4A010030B5002411
:1035D000094D0A4B85B02846029303940EF096FAE3
:1035E00002AB284600934FF4A3620A23044908F073
:1035F0000DFC204605B030BD300F0020943A01008C
:10360000782800200146014808F076BC300F0020E1
:10361000037830B5012B13D0022B27D07BB90A4693
:10362000184B03F1100453F8045BA34242F8045B07
:10363000F9D11B78137043884B731B0A8B7330BD11
:103640000A46104B03F1100453F8045BA34242F8FE
:10365000045BF9D11B7813704368C3F307224B73E3
:103660001B0CCB731B0A8A730B74E8E700F1100381
:1036700050F8042B984241F8042BF9D103780B70D1
:10368000DDE700BF9D3A0100012838B505460CBFB3
:10369000064807480CF0A8FE044620B101210C3072
:1036A0000CF0FEFE2576204638BD00BF50060020F7
:1036B000CC0500200246002070B50B460A49D1E82F
:1036C000EF4FC1E8E50F002DF9D124B9BDE87040F6
:1036D0000120FFF7D9BF01212082217604F10C00DF
:1036E0000CF0DEFE204670BD3801002070B50446A7
:1036F0000F2C0D461046194605D80D2C0DD9BDE8E6
:103700007040FFF7D7BF132C07D10C480CF06CFEAC
:10371000044638B90024204670BD02460B4645B128
:103720000748F3E701210C300CF0BAFE01232376A1
:10373000F1E70120BDE87040FFF7A6BFD4060020E6
:1037400024060020F0B505460E46174685B0AB8826
:10375000012B0ED928460CF0DFFE044648B1AB8899
:10376000984208D9022100930D4A03460D480AF0F9
:1037700005FF05B0F0BD28460CF0CEFE2B688DF895
:103780000800013C394602A88DF809400393B04770
:103790000028EED0214628460CF0AEFED7E700BF49
:1037A000AE3A010070270100C36802211B78024A6B
:1037B00002480BF072BC00BFD93A0100802701001B
:1037C00038B5C368B3F801401B786BB90F212046A8
:1037D00002F024FD054640B9084B1A8822B96FEA69
:1037E00004506FEA1050188038BD012102F00AFC25
:1037F0002846BDE838400BF0DFBD00BFB8200020F0
:103800002DE9F041C5682E78CEB9B5F801700F21C9
:10381000384602F003FD044638B93B46BDE8F041A6
:103820000121084A08480BF038BCEB783146437256
:1038300002F0E8FB2046BDE8F0410BF0BDBDBDE85D
:10384000F08100BF013B01008027010010B5C36873
:103850000121B3F80140204602F0E0FC38B92346CC
:10386000BDE810400121044A04480BF016BCBDE835
:1038700010400BF0A1BD00BF273B010080270100D5
:1038800010B5C36801211C88204602F0C7FC38B976
:103890002346BDE810400121034A04480BF0FDBB5C
:1038A000BDE810400BF088BD273B010080270100D8
:1038B000012110B50C300CF027FEBDE81040037854
:1038C0000121024A02480BF0E8BB00BF4B3B01005C
:1038D00080270100014610B508480CF08CFD08490E
:1038E00008480EF0E6F8031E06DABDE81040012194
:1038F000054A06480BF0D1BB10BD00BF3C010020BB
:1039000014020020501000206D3B010080270100B0
:1039100010B5084C0146052294F86F0002F0ACFD8A
:1039200038B994F86F000422BDE81040024902F053
:10393000A3BD10BD00000020243A01000121024A6D
:1039400002480BF0A8BB00BF8A3B010080270100A2
:103950000B46B0B50D8A00AF04462946D868FFF77C
:10396000D5FD8AB06A46094BC2E90750C2E9053461
:1039700040F202439384064B4FF43251054842F81B
:10398000103F0BF0A3FBBD46B0BD00BFA43B010040
:10399000050000018027010037B502EBC303934205
:1039A00004D103B0BDE83040FFF7D2BF144614F88D
:1039B000085B854211D10B8A54789C4207D90121BA
:1039C0000090074A07480AF0D9FD03B030BD084609
:1039D000536803B0BDE8304018472246DFE700BF18
:1039E000C63B01008027010010B5012104460C30C0
:1039F0000CF08AFD2146BDE810400823014A0078FA
:103A0000FFF7CABFF02B010070B5C5680121B5F8FA
:103A10000160304602F002FC044638B93346BDE886
:103A2000704001210B4A0C480BF037BB2B783BB997
:103A3000D5F80330C0F8AD30D5F80730C0F8B13054
:103A4000201D4FF480510BF02AFB2046BDE870404A
:103A50000BF0B2BC273B01008027010073B53D4845
:103A60000CF0DFFC0446002871D0017E012945D00E
:103A7000032969D1038A032B02D8374A012141E087
:103A800004210C300CF040FDFF2342880688637649
:103A9000238AC6F30B009A42608309D00121009269
:103AA0002E482F4A0AF06AFD204604F0EDFE12E08F
:103AB0000F2102F0B3FB054610B9638B294ADDE7FD
:103AC00002F0CCFB21466076320B284602F070F9FA
:103AD00028460BF071FC244BD3F83C31002B36D038
:103AE000224923480DF0E5FF031E30DA0121214A67
:103AF0001A4802B0BDE870400BF0CFBA038A012B20
:103B000004D81D4A15480BF0C8FACDE702210C3045
:103B10000CF0FAFC054600780BF0AAFA83070CD4E7
:103B200040F69B23154A164916480AF026F84040ED
:103B300080F311884FF0030002DF04232146124A6C
:103B40002878FFF729FFAFE70B46104A96E702B047
:103B500070BD00BF3C010020E83B01008027010050
:103B6000093C01002D3C010000000020140200204F
:103B7000501000206D3B01004F3C01006B3C0100E8
:103B80009F3C0100CD3C0100D02B0100EA3C01002C
:103B90002DE9F04383B0064602AF907A884614467A
:103BA00004F0C8FD3D4D854219D0A47AE846204670
:103BB00004F0C0FD8AB002AA394BC2E90740C2E94D
:103BC0000536062355624FF44251364842F8103FFD
:103BD0000BF07CFAC5460437BD46BDE8F0832046AD
:103BE00004F0B0FD4FF00C092F4D09FB0050438845
:103BF000B3420DD0204604F0A5FD09FB00504388D8
:103C000002210093294A334626480AF0B7FCE2E72E
:103C1000274ED6F8380120B104F036FE0023C6F84E
:103C20003831204604F08EFD0C2606FB0050436818
:103C3000ABB1B8F1000F12D1204604F083FD012191
:103C400006FB00504268D2E90003127A03F01F0617
:103C5000B1405B09DAB100EB83000BF020FA20469B
:103C600004F070FD0C2606FB00508368002BB2D0D8
:103C7000204604F067FD704305F80080204604F0FC
:103C800061FD06FB0055A86807F0FCFEA3E7C943E9
:103C900000EB83000BF01DFAE1E700BFA80600204F
:103CA000FE3C010080270100601B0020333D010025
:103CB0000000002038B5042104460C300CF024FC30
:103CC0004578017822464088FFF762FF25B1BDE8BC
:103CD0003840024807F0D6BE38BD00BF20010020A2
:103CE00070B5032104460C300CF00EFC40F6354252
:103CF0000578B0F80100E36890421B7806D1BDE872
:103D000070400221074A08480BF0C7B922461946FD
:103D1000FFF73EFF25B1BDE87040044807F0B2BE92
:103D200070BD00BF663D010080270100200100201A
:103D30002DE9F84F0123D0F80C80018A98F8004053
:103D400000AF03EB84038B427CD96D468AB06A4690
:103D5000C2E9073105233E484FF42151C2E9050469
:103D60003C4842F8103F0BF0B1F9AD46BD46BDE806
:103D7000F88F5B460121384A36480BF08EF9013541
:103D800098F800309D42F1DA08EB8503B3F801B0F2
:103D90000F215846B3F8036002F040FA04460028A9
:103DA000E7D000F1280B16B34FF02003EFF3118298
:103DB00083F31288BFF36F8FE3696BB1013BE3615B
:103DC00082F31188BFF36F8F204601F0B7FF013EE9
:103DD00007F058FEB6B2E6E7636963B982F311886B
:103DE000BFF36F8F012152461A480BF054F9204659
:103DF0000BF0E2FAC3E7A16918688B42606108BF63
:103E0000A06182F31188BFF36F8F4FF02002EFF3B0
:103E1000118182F31288BFF36F8FDA68E261C3F811
:103E20000C90C3F80090626A4AB9C4E9083381F380
:103E30001188BFF36F8F584607F0E2FFC4E71360A5
:103E40006362F4E70025DFF814A0A94698E700BFF5
:103E50009C3D010080270100C63D0100E23D0100BC
:103E600073B5C5680121B5F80160304602F0D6F996
:103E7000044640B933460121284A294802B0BDE82A
:103E800070400BF00AB92B78061D1A2B19D1C37894
:103E9000012B2AD14FF4806130460BF000F9420526
:103EA0000FD4D4F8A03069460093D4F8A830204647
:103EB000019302F07FFD204602B0BDE870400BF098
:103EC0007BBA2B788BB9B5F80330A4F89E30B5F8DF
:103ED0000530A4F8A430B5F80730A4F8A6306FF484
:103EE000807130460BF0F5F814E0D6E8AF3FDB0503
:103EF000F5D52B78202BF2D194F8AC30002BEED0F6
:103F0000013B84F8AC304FF42032002304F1580018
:103F100008F01CF8204602F0C3F9CCE7273B01006B
:103F20008027010010B5C1E900239DF808300C4638
:103F30000B7204F007FC0C22024B02FB00335C60A6
:103F400010BD00BF601B00202DE9F0474FF0FF328D
:103F50004FF0FF33064617480F460CF045FA4FF076
:103F60000008044600F10C0A012150460CF098FAB2
:103F7000204684F8188004F0E5FB4FF00C090E4D44
:103F800009FB00504680204604F0DCFB09FB005092
:103F9000C0F80880204604F0D5FB09FB005503213A
:103FA0005046C5F804800CF07FFA068087702046E2
:103FB000BDE8F087A8060020601B00202DE9F04135
:103FC000074615460C4688B021B9FFF7BDFF0446E9
:103FD000002854D002AE0122002130460DF0B6FC7C
:103FE000204604F0AFFB0C23DFF8A08003FB008029
:103FF000866020460CF02EFA014625480CF028FA7F
:104000004FF4A0223046002307F062FD064688B137
:1040100040F24B131F4A2049204809F0AEFD3246BA
:1040200039461F4809F0A9FD404080F311884FF040
:10403000030002DF204604F085FB0C23584318F8E8
:104040000060A6B102213B46164A174800960AF0C6
:1040500095FA204604F018FC092E13D00D2E0CBF43
:104060006FF00B006FF0040008B0BDE8F08115B1EF
:104070002C600020F8E7204604F006FCF9E76FF01A
:104080006800F1E76FF06E00EEE700BF601B0020F4
:10409000440100206B3C0100F93D0100CD3C0100D2
:1040A000023E01002E3E01008027010073B5064646
:1040B0000D4642F22F00002101AAFFF77FFF0446C0
:1040C00038B10121084A09480AF0E5FF204602B04C
:1040D00070BD0198C368B3F801203280B3F8033093
:1040E0002B8004F0D1FBF1E74A3E0100802701005C
:1040F000F7B5144B054693F99B300C46002B1DDA9F
:1041000014B9204603B0F0BD082C4FF0000142F274
:10411000180001AA264628BF0826FFF74FFF0028EF
:10412000F0D1019F3246F968284601310EF096F829
:10413000384604F0A9FB3544A41BE1E76FF0850085
:10414000E0E700BF000000202DE9F04788B000261E
:10415000944BB0F80180198848F470420478914279
:1041600008BF1E80054608BF012602AF2CB33C2CB9
:104170001CD101F0EBF96FF0800110300AF0A9FFBB
:104180000020FFF7C5FB054640B90121864A874854
:104190000AF081FF1837BD46BDE8F0874472002160
:1041A00001F030FF28460BF007F9F3E72346022120
:1041B0007F4A7E480AF071FFECE7C37800F10409FA
:1041C000012B08BF7B4B484608BF93F86F400AF0AD
:1041D0004BFF494640B307F110000AF03AFF05F1E2
:1041E000110107F109000AF065FF01233B72EB782A
:1041F000012B27D04846FFF7ABF96C4688B002AADE
:104200006D4B4FF4E251C2E905304FF400739383D4
:104210006A4B664842F8103F0AF058FF1321A54642
:1042200040460AF05EFFB5E720460BF014F8014661
:1042300007F110000AF043FF494607F108000AF0B1
:104240003EFFD4E707F11000FFF762FBEB7804466E
:10425000012B0AD101F07AF982466FF0800110300B
:104260000AF037FF50460BF056F8002CC2D020461B
:104270000022B5F8013007F1100120F8883B0AF060
:104280001EFFB5F81730A4F89E30B5F81930A4F821
:10429000A430B5F81B30A4F8A630EB786272012B7D
:1042A000E37016D107F1080104F18F000AF007FF4F
:1042B00001F04CF9217A3F4AC1EBC101114404F1EC
:1042C00096000AF0FCFED2F8E4305D0601D501F05C
:1042D00041F90721204601F095FE1EB1012120463B
:1042E00001F090FE20460BF09DF8A37A072B53D1E6
:1042F000231DD3E8AF3F13F4805F2E4E20D1E37827
:104300001BB196F8D83018071AD5022142F21600D0
:10431000FFF71AFE0546002840D002210C300CF0B1
:10432000C3F8238800220380294642F21600FFF7D3
:1043300045FE034620B10121214A1C480AF0ADFE8A
:1043400096F8D930D9070DD5022300211A46204608
:1043500000910AF0FFFE034620B10121194A1348DB
:104360000AF09BFE96F8D8309A0615D5D6F85C313F
:104370009B689B0710D5B91D381DFFF797FE58B9EC
:104380002046FA88B9880AF0C7FE034620B1012109
:104390000D4A06480AF081FE204604E76FF06803E4
:1043A000C9E700BFB82000206A3E01008027010055
:1043B0008B3E010000000020A43E0100030000012C
:1043C000C03E0100E13E0100F83E010000B5C168B9
:1043D00089B00B7801A88DF80030B1F801300431B4
:1043E000ADF8013011F8013C8DF80330B1F8073019
:1043F000ADF81730B1F80930ADF81930B1F80B301D
:10440000ADF81B304B7B8DF81D300AF058FE074984
:104410000DF10B000AF04EFE0DF111000AF04AFEFC
:104420006846FFF791FE09B05DF804FB383A0100D9
:1044300070B58EB06C4606460A4D0D2E0FCD0FC4DA
:104440000FCD0FC40FCD0FC495E8030084E803001F
:104450009DBF0EAB03EB860656F8380C02480EB033
:1044600070BD00BFA8280100143F0100024BD3F823
:104470005C315B69184700BF0000002038B5054675
:104480000C4619B9FFF760FD0446C8B140F6354344
:104490009D420FD12046FFF7E9FF054640B1034694
:1044A00001210948094A0AF0F8FD204604F0ECF918
:1044B000284638BD214606480BF0CAFF0025F7E71D
:1044C0006FF06805F4E700BF802701001C3F010082
:1044D000440100202DE9F0410446458B477E807A57
:1044E00004F028F96169064649B1637ADA0704D411
:1044F000436A20461B689B689847002363612146F6
:1045000030460DF015FA244B93F88A309B0641D5BE
:10451000384602F017F9044638B93B46BDE8F04189
:1045200002211E4A1E480AF0B8BD837A073B012BC0
:1045300009D91B4802211B4A0AF0ADFD2046BDE8FF
:10454000F0410AF039BF0AF037FF052140F6354047
:10455000FFF7FAFC044630B9BDE8F0410121124AE8
:104560000F480AF098BD00F10C07012138460BF006
:104570009BFF01260421067038460BF095FF0023AF
:1045800005808670C3702146BDE8F04140F6354095
:10459000FFF774BFBDE8F081000000203E3F01003E
:1045A00080270100673F0100933F010073B5C36896
:1045B000D9789A781E8842EA0122ADF8002059790C
:1045C0001A79B4B242EA0122ADF80220D9799A7977
:1045D000204642EA0122ADF804201A7A5B7A0121D2
:1045E00042EA0323ADF8063001F018FE054658B93B
:1045F00001211C4823461C4A0AF04FFD0221204697
:104600000AF0F4FD02B070BD694601F08DFE38B9C4
:104610001E2120460AF0EAFD28460AF0CDFEF1E709
:104620000E2142F22000FFF78FFC04460028F3D051
:104630000E210C300BF038FF00230680C0F80A3042
:10464000BDF8003021464380BDF802308380BDF8BC
:104650000430C380BDF80630038142F22000FFF72A
:104660000DFFD9E780270100273B01002DE9F84F16
:10467000484FDFF8248107F11409FB6848466FF3BF
:104680009433FB6001F074FC451C4FF0FF324FF097
:10469000FF3329463F4808F0ABF960B140F61833C4
:1046A00042463E493E4809F068FA404080F311888E
:1046B0004FF0030002DF374EDFF8E8B015B907F01E
:1046C000DDFEDAE7F368C3F38633022B51D9042BFE
:1046D00059D1337B002B4FD10022002332480BF0FD
:1046E00088FE044660B940F6AA2342462F492C486A
:1046F00009F043FA404080F311884FF0030002DFD5
:10470000DFF8ACA04FF0FF324FF0FF33294807F03D
:10471000DFF9DAF838215AB1274A012121480AF095
:10472000BAFCDAF8380104F0AFF80022CAF83821F0
:1047300020460BF08FFECAF838012046FFF796FEA0
:104740000346B0B101211D4A16480AF0A6FC1948DB
:1047500007F098F9204603F0F5FF0C22184B1F21B3
:1047600002FB003022464088FFF712FA204604F090
:104770008BF81436013DA1E7012BFAD130693838A6
:1047800001F054FFF5E7022158460E4A0AF085FC75
:10479000EFE700BFD80100206B3C0100F93D0100AC
:1047A000CD3C01008027010044010020CA4C0100DB
:1047B0000000002020010020B63F01001C3F010046
:1047C000601B0020D13F01002DE9F041044600F1BB
:1047D0000C0630460BF0B0FEB4F810800546B8F178
:1047E000010F0AD843460121184A19480AF055FC1E
:1047F0002046BDE8F04104F047B8304602210BF0F6
:1048000083FE074600780AF033FCC20706460CD444
:1048100040F6CA630F4A1049104809F0AEF940400B
:1048200080F311884FF0030002DF052321460C4A74
:104830003878FFF7B1F8B307DAD56369A4F81080C8
:1048400013FA85F5E560BDE8F08100BF4F3C01003B
:10485000802701006B3C0100F23F0100CD3C0100CC
:10486000A82B010038B5037E0446012B05D0032B8D
:1048700011D1FFF72FF8002038BDC36818780AF06F
:10488000F7FBC207054602D52046FFF79DFFAB07A1
:10489000F1D52046EDE70121044A05480AF0FDFB69
:1048A000204603F0F1FF6FF01500E5E70B40010033
:1048B00080270100084A0346D2F85C0130B9D96864
:1048C00039B1596929B1C2F85C3170476FF077008E
:1048D00070476FF015007047000000202DE9F84F79
:1048E000042100AF3E4C3F480AF0D9FB002000F005
:1048F000D7FE3D4DE2793D4B2046012A88BF1D463B
:104900006E46FEF725FE8AB06A46394BA346C2E9D9
:1049100005350125374BD0611362374B4FF42351D6
:10492000364842F8103F0AF0D1FBDFF8D480B54694
:10493000DFF8C890334EE3790BF1070B9D4238DB6B
:1049400094F870506E462846FFF772FD8CB06A46A8
:10495000B4F87210B4F87630C2E907514FF400751C
:104960005362DFF8A4C0294BC2E905C015854FF496
:10497000535142F8103F21480AF0A8FBB54694F87D
:1049800071603046FFF754FD8AB06A46B4F874305F
:104990001F49C2E907631F4BC2E9051095844FF414
:1049A0003351164842F8103F0AF090FBBD46BDE86F
:1049B000F88F5846FEF7CCFDEA468AB06A4640F2C8
:1049C0000133C2E90565D06113844FF413514846A1
:1049D00042F8108F0AF07AFB0135D546ABE700BFED
:1049E00000000020D40000208F5201001F40010071
:1049F000234001000002010304000002802701009F
:104A000004000001324001004340010006000001A3
:104A10008140010005000001F0B583B0624D00AF98
:104A2000D5F85C31996811F001011DD140F60340C1
:104A30003A1DFFF7C3FA0446002840F0B0807C68B6
:104A4000E3681B786BB900F025FE05F1D403D3E8C9
:104A5000AF2F02F00902D3E8EF1FC3E8E02F0028D0
:104A6000F9D1204603F010FF002141F203003A1D66
:104A7000FFF7A4FA0446002840F091807B684B4E73
:104A8000DA68D2F80100D2F8051003C6184603F020
:104A9000FBFE214641F201003A1DFFF78FFA044662
:104AA00000287CD17868C3685A7885F870205A88C5
:104AB000A5F872201A7985F87120B3F80720A5F8B7
:104AC0007420B3F80530A5F8763003F0DDFE2146FA
:104AD00041F202003A1DFFF771FA044600285ED148
:104AE000D7F804C0DCF80C20531C41323446186857
:104AF0005968083303C493422646F7D1604603F051
:104B0000C3FE00F09BFF0446002848D195F88A3088
:104B10009B0610D40221264A26480AF0BCFA95F8D2
:104B20007C305E064AD40121234A22480AF0B3FAB7
:104B30006FF0120433E0072140F63340FFF704FA28
:104B40000646002800F01F8107210C300BF0ACFC5A
:104B50001B2303700623C0F8024084714470047163
:104B60002246C370314640F63340FFF727FA044629
:104B7000A8B9012140F63140FFF7E6F906460028C2
:104B800000F0018101210C300BF09DFC22463146E2
:104B900040F63140FFF712FA04460028BFD0204605
:104BA0000C37BD46F0BD00BF00000020780000209B
:104BB000A840010080270100D6400100002142F2F8
:104BC00003003A1DFFF7FAF904460028E7D17B6895
:104BD000C44EDA68D2F80100D2F8051003C61846B0
:104BE00003F052FE214642F202003A1DFFF7E6F9B9
:104BF00004460028D3D17C68E368B3F8012091B261
:104C000049B1D97839B1A5F80421DA78114606F10D
:104C100028000CF09BFE204603F036FE95F87C60E1
:104C200016F0200618D1022140F66D40FFF78CF9EE
:104C30000446002800F0A78002210C300BF034FC61
:104C40000123214603704670324640F66D40FFF75F
:104C5000B5F904460028A2D195F89C301C0712D55E
:104C6000002142F21C003A1DFFF7A8F90446002873
:104C700095D17868C368D3F80120D3F80530C5E929
:104C8000382303F001FE95F8D830980620D5384631
:104C9000B91CFFF70BFA0446002880D1042142F228
:104CA0002400FFF751F9064600286CD004210C308F
:104CB0000BF0FAFB3B88224603807B883146438019
:104CC00042F22400FFF77AF9044600287FF467AF28
:104CD000082142F20100FFF737F90446002852D0BC
:104CE00008210C300BF0E0FB95F8D82012F0020FF1
:104CF00014BF2F230F23910695F8D92048BF43F006
:104D0000400312F0090F4FF0000218BF43F4006394
:104D10000370C3F30723214643708270C27002718F
:104D200042718271C27142F20100FFF747F90446F5
:104D300000287FF434AF95F87C30B5F804119A065A
:104D400024D4C9B941F205003A1DFFF737F90446EA
:104D500000287FF424AFB5F804317C684BB9E368D0
:104D6000B3F80120A5F804219A885F4811460CF099
:104D7000EDFD204603F088FD082140F60140FFF7D5
:104D8000E3F8044660B96FF0680408E70029F3D13E
:104D90000121564A56480AF07EF96FF00404FEE6F7
:104DA00008210C300BF080FB1023037088230022B5
:104DB00043700226202321468270C6700271427120
:104DC0008271C37140F60140FFF7F8F804460028ED
:104DD0007FF4E5AE01463A1D4FF60140FFF7EEF8CD
:104DE00098B1444A022142480AF055F900F048FBC4
:104DF000044600287FF4D3AE01F0ACFC0446002842
:104E00007FF4CDAEFFF76AFDC9E67B686E46DC68CD
:104E10008AB0B4F80130032B96BF374A374952F8AD
:104E200023106A46D3614FF4007335481384354B21
:104E3000C2E9050142F8103F4FF413512C480AF023
:104E400045F9B4F80120B546022AB4F8033067D119
:104E5000052B65D82C4A52F823106E468AB06A4654
:104E6000D3614FF4007329481384264BC2E905012E
:104E700042F8103F4FF413511D480AF027F9B54688
:104E8000637994F806C0032B98BF214AB4F80760F1
:104E9000D4F809006C468CB094BF52F8231017491F
:104EA0006A46C2E9073C4FF40073DFF868E0938577
:104EB000194BC2E905E1C2E909604FF4735142F8A8
:104EC000103F0B480AF002F9A546786803F0DCFCB5
:104ED00000214FF602403A1DFFF770F8044608B370
:104EE0000E4A7FE7D800002008010020FA400100A8
:104EF000802701001D410100982B0100143F010093
:104F00004141010004000001802B01005A410100D1
:104F1000702B010072410100070000019F41010058
:104F20000F499AE77868C368B3F80130A5F8C13033
:104F300003F0AAFC95F8C1305B077FF557AF214617
:104F40004FF603403A1DFFF739F808B1054A49E723
:104F50007868C3685B7885F8C03003F095FC45E756
:104F6000143F0100C841010010B5FFF755FD034B88
:104F70001B6813B1BDE81040184710BDD81B0020B6
:104F800070B5344D0646D5F85C3188B04BB9012177
:104F9000314A32480AF07FF86FF01204204608B018
:104FA00070BD6FF0020105F1D4000AF092F8012102
:104FB0000AF075F810EA010448D1294B1E600A4630
:104FC00005F590700CF0C2FC05F5A2700CF099FC90
:104FD00000220023CDE906236FF008034FF480621E
:104FE000CDE90243CDE900441E4B1F4904941F48FC
:104FF00006F0E6FB1E491D480CF0EFFB1D480CF0C7
:1050000085FD6FF007034FF496621B491948009421
:1050100006F0FCFE194917480CF0DFFBD5F85C31AF
:10502000DB689847044630B103460121144A0B4817
:105030000AF033F8B2E726B908B0BDE87040FFF7D0
:10504000EBBC05F1C40006F0DBFEA7E76FF07704C8
:10505000A4E700BF00000020F1410100802701000B
:10506000D81B00206D460000902D0020D00F00209E
:105070000A4201005010002090310020104201002F
:105080001642010000487047F0300100F8B50646AE
:105090000024094DEF79E3B29F4202D86FF001007E
:1050A00007E0294630460AF0C0F80735631C08B10E
:1050B0002046F8BD1C46EEE70000002037B5044648
:1050C0000D4671B1284612490AF0AFF848B9294691
:1050D0001048C4EBC40420440AF0B6F8002003B022
:1050E00030BD684609F0A7FF0028F8D16846FFF7F1
:1050F000CDFF0028F5DA074BC4EBC400694618441D
:105100000AF0A2F8002DE9D001462846E4E700BFE6
:105110002B3A01000000002038B50622114905464F
:105120000DF0B1F8C8B1062142F20500FEF70CFF00
:105130000446A0B1062229460C300BF0BBF9002230
:10514000214642F20500FEF739FF38B905482946E5
:105150000AF075F8012300F8013C002038BD6FF01B
:105160006800FBE76900002070B50D460446C0B139
:1051700020490AF05AF8A0B92378012B04D1A37969
:1051800003F0C003C02B07D001211B4A1B480AF0C3
:1051900054F86FF0150070BD2046FFF777FF002828
:1051A00021DA002DF5D1164DEB79012B1ED005F13A
:1051B000D403D3E8AF3FDB0707D4002CE9D0204667
:1051C0000C490AF032F80028E3D1EE792146731C2D
:1051D0003046EB71FFF772FF08B93046DBE7EB7939
:1051E000013BEB71D7E76FF07700D4E76FF00B006E
:1051F000D1E700BF2B3A010035430100A027010091
:1052000000000020F7B5044638B9174A02211748B4
:105210000AF013F8002003B0F0BD002141F20900AC
:1052200001AAFEF7CBFE064608B1114AEEE7019F40
:105230000622FD680F49013528460DF024F828B1F3
:10524000062228460C490DF01EF818B9384603F01E
:105250001BFBDFE72946601C09F0F1FF384626708A
:1052600003F012FB0120D6E763430100A0270100F1
:105270007C430100383A0100323A010007B5684624
:10528000FFF7C0FF044BD87118B169460020FFF743
:1052900015FF03B05DF804FB00000020F7B51F4BBD
:1052A000054693F8C2300E46DB0708D41C4A02219B
:1052B0001C4809F0C2FF0024204603B0F0BD0021C5
:1052C0004FF6094001AAFEF779FE034608B1164AD7
:1052D000EDE701981627C26854780232B44228BF1D
:1052E00034469C4209DC03F0CFFA002CE4D10221C1
:1052F0000E4A0C4809F0A1FFDEE7114607FB0356F2
:1053000002F1140C51F804EB614546F804EBF9D1B5
:105310000988013331801632E3E700BF0000002026
:105320009A430100A0270100C6430100E6430100A3
:1053300070B5154D88B0EC792CB9012102A8FFF7A2
:10534000ADFFE871C0B90021084608B0BDE8704063
:10535000FFF70ABF02AB06FB02310DF1010009F0B5
:105360006EFF0123694610468DF80030FFF7A6FE58
:10537000013410B108B070BD1626EB79E2B2934249
:10538000E8D80020F6E700BF0000002039B1064849
:105390000378012B0B7005D10130FFF7BDBE6FF014
:1053A0001500704700207047000000202DE9F041F3
:1053B00090460E461D46024650B14BB1310304786B
:1053C00010D5730708D501212A4A2B4809F035FF6B
:1053D0006FF01500BDE8F08109F04AFF0028F9D10F
:1053E000012341E0F70730D5244FB8F1000F13D067
:1053F000B0060AD4C4EBC403FB5C012B13D02B70A2
:10540000B20620D543F002030BE097F8D8305906D6
:10541000F0D46FF08500DDE7C4EBC403FB5C012B27
:1054200001D02B700FE0072101FB04711046013100
:1054300009F016FF0028CDD1C4EBC4043B5D2B70EE
:10544000B8F1000FDCD10020C4E773070ED50B4E76
:10545000C4EBC407F35D012BE3D1072111FB043139
:10546000314409F0FDFEF35D2B70B3E709F000FF56
:10547000B6E700BF0F440100A02701000000002094
:1054800038B5104DEB7913B10024204638BDFFF735
:10549000F5FE044628B10C4A01210C4809F0CDFE66
:1054A000F3E7EB79002BEFD1FFF742FF044600282A
:1054B000F1D1681CFFF730FE04460028E5D0044A0D
:1054C000EAE700BF000000202E440100A0270100F1
:1054D0004D440100072208B5034909300CF0D3FE02
:1054E000003818BF012008BD2B3A0100F8B5154B54
:1054F000067804460D4683F86F60FFF7EBFF70B93E
:105500003046114900F04AFF044610B96FF00B0015
:10551000F8BD042100F076FD00202C60F8E704F1CE
:1055200009073946304600F06FFF40B92078394608
:1055300000F034FF04460028E8D00521EAE76FF0C8
:105540001500E5E700000020243A010000487047FC
:105550001800002073B5334809F0AAFE10F4804FFC
:10556000304C38D0204609F0A3FE030633D4204641
:1055700009F09EFE46052ED501A9A4F11000FFF703
:10558000B5FF40BBA4F11000FFF7A4FF0246204680
:1055900009F08EFEC0F38031204609F089FE81F0CB
:1055A000010145054FEA41011E4848BF41F0010194
:1055B00009F07EFE800448BF41F004011A480DF155
:1055C0000303FFF7F3FE054638B101210346174AEE
:1055D000174808F0C9FF02B070BD0121124809F058
:1055E00075FE019E28B9304602B0BDE8704009F052
:1055F000E3BE2946304600F005FD6FF480410948BE
:1056000009F059FE0546304609F0D6FE6B04E2D596
:10561000D4E8EF3F43F48043C4E8E23F002ADAD005
:10562000F6E700BF280000201800002070440100A9
:105630005827010030B50221044687B042F20C0021
:10564000FEF782FC054600B302210C300AF02CFF65
:10565000012C18D10E4BD3E8AF3FC3F34023437066
:10566000631E04705C425C412846094A03A9062374
:105670000094FEF757FC0022294642F20C00FEF788
:105680009DFC07B030BD0023E9E76FF06800F8E744
:10569000D40000200022014B1A607047E41B002058
:1056A000074BD3E8AF2FC2F3C010120605D4D3E8DE
:1056B000AF3F5B0601D5FFF7BDBF0020704700BFBD
:1056C000D40000202DE9F04F00F10C0604468BB009
:1056D00030460AF021FF8046DFF86091DFF860A1D4
:1056E000B8F1000F02D10BB0BDE8F08F238A082B70
:1056F00007D80121534A54480BB0BDE8F04F08F0D9
:105700002ABF092130460AF0FFFE037A228A0133BC
:105710009A420546EDD30123ADF824307F238DF85E
:105720001E30037A471C03445B7A8DF81D30FF233B
:105730008DF81C300023ADF822300278042A98BF7F
:10574000424B8DF81F2098BF9B5CADF82030037A48
:105750003846019309F088FC002848D0394604A84F
:1057600009F077FCDAF80030A3B130460AF0E4FE25
:105770008346019B278A9DF81F2023829DF91D10D7
:105780003346DAF800C004A8E0476369278213FAB9
:105790008BF3E36004AB06932D4B1B68002B40D0CA
:1057A0001A6802B1083A53F8081CB9B11746A3F1B8
:1057B0000802304603920AF0BFFE8346238A039A0A
:1057C0000293019B31462382126806A890476269C2
:1057D000029B12FA8BF2E2603A4623820AB3976880
:1057E0001368E7B1083F002BE3D13A46F7E76B783F
:1057F000FF2B0BD1D9F80000B9F8042099F8063036
:105800000490ADF814208DF81630ABE7394609F056
:1058100022FD0346006804909A889B79F1E7002BEB
:10582000C7D10023297A3046013108F1FF380693A9
:105830005FFA88F80AF060FE52E700BF2B3A0100D9
:10584000E41B0020AD440100B0270100C644010064
:10585000DC1B00202DE9F34105460F46554ED6E8E6
:10586000AF3F13F0040F344600F0A0800278012A05
:1058700005D96FF01504204602B0BDE8F0814368F9
:105880000F2BF6D843F6FC7C0089031F9BB26345BF
:10589000EFD869890B1F9BB26345EAD88842E8D3E9
:1058A0006AB9D4E8EF0F40F08003C4E8E23F002A71
:1058B000F7D110F0800007D06FF07704DBE709F034
:1058C000EEFC0028EDD1D4E7D6E8AF3F590609D564
:1058D000FFF7B0FE044628B16FF08001354809F0AB
:1058E0001DFDC8E76B68DA0711D5D6E8EF3F43F432
:1058F0000073C6E8E23F002AF7D1AB896BB16FF0C5
:1059000080012C4809F00AFD6FF08504B3E76FF4BD
:105910000071284809F002FDEFE795F80080298919
:10592000ADF8053008F1FF336A895842ADF801102F
:1059300058410DF105018DF80080ADF80320FFF707
:1059400025FD04460028C7D1072142F20B00FEF7CF
:10595000FBFA054638B3072269460C300AF0AAFD67
:105960002246294642F20B00FEF728FB0446002897
:10597000B2D10120FFF75EFE04460028ACD1B8F199
:10598000010F0AD1D6E8EF3F43F48073C6E8E23F47
:10599000002AF7D1084B1F606DE76FF4807105484E
:1059A00009F0BCFCF6E76FF0680495E76FF00A04B5
:1059B00061E700BFD4000020E41B002000238360C7
:1059C000054B00F10802596811B9C3E9002270477C
:1059D0000A605A60704700BFDC1B002030B58DB0F4
:1059E000202104A8FEF784FB0446E8B90CF05CFA19
:1059F0004FF47A75A0FB053205FB0121DB0B43EA6E
:105A00004143C90BCDE90231082320220093084805
:105A10006B4404A909F019FA30B90121054A064876
:105A200008F099FD6FF0040420460DB030BD00BFB2
:105A3000F0100020CB4401009827010007B5082191
:105A40006846FEF755FB60B908226946084809F028
:105A5000DCF948B907480121074A08F07CFD6FF0DE
:105A6000040003B05DF804FBFFF7B8FFF9E700BFDF
:105A7000F010002098270100E244010038B50D46DF
:105A8000044698B191B10B4A09F0F8F9431C07D1CB
:105A9000FFF7A4FF48B929462046064A09F0EEF967
:105AA00001280CBF00206FF0040038BD6FF0150016
:105AB000FBE700BFF010002070B504460A4B1D68DC
:105AC00025B90A4D0A4EB54207D370BD2B6813B1F4
:105AD0002046617A98472D69F2E72B6813B120467A
